{
  "_format": "hh-sol-artifact-1",
  "contractName": "SubscriptionService",
  "sourceName": "contracts/SubscriptionService.sol",
  "abi": [
    {
      "inputs": [
        {
          "internalType": "uint8",
          "name": "_contractFeePercentage",
          "type": "uint8"
        }
      ],
      "stateMutability": "nonpayable",
      "type": "constructor"
    },
    {
      "anonymous": false,
      "inputs": [
        {
          "indexed": true,
          "internalType": "address",
          "name": "previousOwner",
          "type": "address"
        },
        {
          "indexed": true,
          "internalType": "address",
          "name": "newOwner",
          "type": "address"
        }
      ],
      "name": "OwnershipTransferred",
      "type": "event"
    },
    {
      "anonymous": false,
      "inputs": [
        {
          "indexed": true,
          "internalType": "address",
          "name": "creatorAddress",
          "type": "address"
        },
        {
          "indexed": false,
          "internalType": "uint256",
          "name": "price30Days",
          "type": "uint256"
        },
        {
          "indexed": false,
          "internalType": "uint256",
          "name": "price90Days",
          "type": "uint256"
        },
        {
          "indexed": false,
          "internalType": "uint256",
          "name": "price180Days",
          "type": "uint256"
        },
        {
          "indexed": false,
          "internalType": "uint256",
          "name": "price365Days",
          "type": "uint256"
        }
      ],
      "name": "PageCreated",
      "type": "event"
    },
    {
      "anonymous": false,
      "inputs": [
        {
          "indexed": true,
          "internalType": "address",
          "name": "creatorAddress",
          "type": "address"
        },
        {
          "indexed": true,
          "internalType": "address",
          "name": "userAddress",
          "type": "address"
        },
        {
          "indexed": false,
          "internalType": "uint256",
          "name": "start",
          "type": "uint256"
        },
        {
          "indexed": false,
          "internalType": "uint256",
          "name": "end",
          "type": "uint256"
        }
      ],
      "name": "SubscriptionPaid",
      "type": "event"
    },
    {
      "anonymous": false,
      "inputs": [
        {
          "indexed": false,
          "internalType": "address",
          "name": "creator",
          "type": "address"
        },
        {
          "indexed": false,
          "internalType": "address",
          "name": "sub",
          "type": "address"
        }
      ],
      "name": "UserIsSubscribed",
      "type": "event"
    },
    {
      "anonymous": false,
      "inputs": [
        {
          "indexed": false,
          "internalType": "address",
          "name": "creator",
          "type": "address"
        },
        {
          "indexed": false,
          "internalType": "address",
          "name": "sub",
          "type": "address"
        }
      ],
      "name": "UserNotSubscribed",
      "type": "event"
    },
    {
      "inputs": [
        {
          "internalType": "address",
          "name": "creatorAddress",
          "type": "address"
        },
        {
          "internalType": "uint256",
          "name": "daysSubscribing",
          "type": "uint256"
        }
      ],
      "name": "calculatePrice",
      "outputs": [
        {
          "internalType": "uint256",
          "name": "price",
          "type": "uint256"
        }
      ],
      "stateMutability": "view",
      "type": "function"
    },
    {
      "inputs": [
        {
          "internalType": "uint8",
          "name": "newFee",
          "type": "uint8"
        }
      ],
      "name": "changeContractFee",
      "outputs": [],
      "stateMutability": "nonpayable",
      "type": "function"
    },
    {
      "inputs": [
        {
          "internalType": "uint256[]",
          "name": "intervals",
          "type": "uint256[]"
        },
        {
          "internalType": "uint256[]",
          "name": "newFees",
          "type": "uint256[]"
        }
      ],
      "name": "changeManySubscriptionFee",
      "outputs": [],
      "stateMutability": "nonpayable",
      "type": "function"
    },
    {
      "inputs": [],
      "name": "contractFeePercentage",
      "outputs": [
        {
          "internalType": "uint8",
          "name": "",
          "type": "uint8"
        }
      ],
      "stateMutability": "view",
      "type": "function"
    },
    {
      "inputs": [
        {
          "internalType": "uint256",
          "name": "_price30Days",
          "type": "uint256"
        },
        {
          "internalType": "uint256",
          "name": "_price90Days",
          "type": "uint256"
        },
        {
          "internalType": "uint256",
          "name": "_price180Days",
          "type": "uint256"
        },
        {
          "internalType": "uint256",
          "name": "_price365Days",
          "type": "uint256"
        }
      ],
      "name": "createPage",
      "outputs": [],
      "stateMutability": "nonpayable",
      "type": "function"
    },
    {
      "inputs": [
        {
          "internalType": "address",
          "name": "",
          "type": "address"
        }
      ],
      "name": "creatorPageExists",
      "outputs": [
        {
          "internalType": "bool",
          "name": "",
          "type": "bool"
        }
      ],
      "stateMutability": "view",
      "type": "function"
    },
    {
      "inputs": [
        {
          "internalType": "address",
          "name": "",
          "type": "address"
        }
      ],
      "name": "creators",
      "outputs": [
        {
          "internalType": "uint256",
          "name": "price30Days",
          "type": "uint256"
        },
        {
          "internalType": "uint256",
          "name": "price90Days",
          "type": "uint256"
        },
        {
          "internalType": "uint256",
          "name": "price180Days",
          "type": "uint256"
        },
        {
          "internalType": "uint256",
          "name": "price365Days",
          "type": "uint256"
        }
      ],
      "stateMutability": "view",
      "type": "function"
    },
    {
      "inputs": [
        {
          "internalType": "address",
          "name": "creatorAddress",
          "type": "address"
        }
      ],
      "name": "getActiveSubscribers",
      "outputs": [
        {
          "internalType": "address[]",
          "name": "",
          "type": "address[]"
        }
      ],
      "stateMutability": "view",
      "type": "function"
    },
    {
      "inputs": [
        {
          "internalType": "address",
          "name": "creatorAddress",
          "type": "address"
        }
      ],
      "name": "getCreatorSubscribers",
      "outputs": [
        {
          "internalType": "address[]",
          "name": "",
          "type": "address[]"
        }
      ],
      "stateMutability": "view",
      "type": "function"
    },
    {
      "inputs": [
        {
          "internalType": "address",
          "name": "userAddress",
          "type": "address"
        }
      ],
      "name": "getUserSubscriptions",
      "outputs": [
        {
          "internalType": "address[]",
          "name": "",
          "type": "address[]"
        }
      ],
      "stateMutability": "view",
      "type": "function"
    },
    {
      "inputs": [
        {
          "internalType": "address",
          "name": "creatorAddress",
          "type": "address"
        },
        {
          "internalType": "address",
          "name": "userAddress",
          "type": "address"
        }
      ],
      "name": "isSubscribed",
      "outputs": [
        {
          "internalType": "bool",
          "name": "",
          "type": "bool"
        }
      ],
      "stateMutability": "view",
      "type": "function"
    },
    {
      "inputs": [
        {
          "internalType": "address",
          "name": "creatorAddress",
          "type": "address"
        },
        {
          "internalType": "address",
          "name": "userAddress",
          "type": "address"
        }
      ],
      "name": "newSubscriber",
      "outputs": [
        {
          "internalType": "bool",
          "name": "",
          "type": "bool"
        }
      ],
      "stateMutability": "view",
      "type": "function"
    },
    {
      "inputs": [],
      "name": "owner",
      "outputs": [
        {
          "internalType": "address",
          "name": "",
          "type": "address"
        }
      ],
      "stateMutability": "view",
      "type": "function"
    },
    {
      "inputs": [
        {
          "internalType": "address payable",
          "name": "creatorAddress",
          "type": "address"
        },
        {
          "internalType": "uint256",
          "name": "daysSubscribing",
          "type": "uint256"
        }
      ],
      "name": "payForSubscription",
      "outputs": [],
      "stateMutability": "payable",
      "type": "function"
    },
    {
      "inputs": [],
      "name": "renounceOwnership",
      "outputs": [],
      "stateMutability": "nonpayable",
      "type": "function"
    },
    {
      "inputs": [
        {
          "internalType": "address",
          "name": "creatorAddress",
          "type": "address"
        },
        {
          "internalType": "address",
          "name": "userAddress",
          "type": "address"
        }
      ],
      "name": "subscriptionEnd",
      "outputs": [
        {
          "internalType": "uint256",
          "name": "",
          "type": "uint256"
        }
      ],
      "stateMutability": "view",
      "type": "function"
    },
    {
      "inputs": [
        {
          "internalType": "address",
          "name": "creatorAddress",
          "type": "address"
        },
        {
          "internalType": "address",
          "name": "userAddress",
          "type": "address"
        }
      ],
      "name": "subscriptionStart",
      "outputs": [
        {
          "internalType": "uint256",
          "name": "",
          "type": "uint256"
        }
      ],
      "stateMutability": "view",
      "type": "function"
    },
    {
      "inputs": [
        {
          "internalType": "address",
          "name": "newOwner",
          "type": "address"
        }
      ],
      "name": "transferOwnership",
      "outputs": [],
      "stateMutability": "nonpayable",
      "type": "function"
    }
  ],
  "bytecode": "0x60806040523480156200001157600080fd5b506040516200271f3803806200271f833981810160405281019062000037919062000188565b620000576200004b6200007960201b60201c565b6200008160201b60201c565b80600060146101000a81548160ff021916908360ff16021790555050620001ba565b600033905090565b60008060009054906101000a900473ffffffffffffffffffffffffffffffffffffffff169050816000806101000a81548173ffffffffffffffffffffffffffffffffffffffff021916908373ffffffffffffffffffffffffffffffffffffffff1602179055508173ffffffffffffffffffffffffffffffffffffffff168173ffffffffffffffffffffffffffffffffffffffff167f8be0079c531659141344cd1fd0a4f28419497f9722a3daafe3b4186f6b6457e060405160405180910390a35050565b600080fd5b600060ff82169050919050565b62000162816200014a565b81146200016e57600080fd5b50565b600081519050620001828162000157565b92915050565b600060208284031215620001a157620001a062000145565b5b6000620001b18482850162000171565b91505092915050565b61255580620001ca6000396000f3fe6080604052600436106101095760003560e01c80638dfca5cc11610095578063d2294b7c11610064578063d2294b7c146103ca578063dbd8987c146103e6578063f2fde38b14610411578063f6416ef61461043a578063ff9ed7c21461047757610109565b80638dfca5cc146102e7578063933166e114610324578063947fe108146103645780639c674ad3146103a157610109565b80633c3e43e0116100dc5780633c3e43e0146102025780636f3b61bb1461022b578063715018a614610268578063799e50e91461027f5780638da5cb5b146102bc57610109565b8063228fd4fa1461010e5780632e6ca5881461014b5780632f7306b8146101885780633a1f73c2146101c5575b600080fd5b34801561011a57600080fd5b5061013560048036038101906101309190611881565b6104a0565b60405161014291906118c9565b60405180910390f35b34801561015757600080fd5b50610172600480360381019061016d9190611881565b6104c0565b60405161017f91906119a2565b60405180910390f35b34801561019457600080fd5b506101af60048036038101906101aa91906119fa565b610590565b6040516101bc9190611a49565b60405180910390f35b3480156101d157600080fd5b506101ec60048036038101906101e79190611a64565b61072a565b6040516101f99190611a49565b60405180910390f35b34801561020e57600080fd5b5061022960048036038101906102249190611aa4565b6107b7565b005b34801561023757600080fd5b50610252600480360381019061024d9190611a64565b610a12565b60405161025f9190611a49565b60405180910390f35b34801561027457600080fd5b5061027d610a9f565b005b34801561028b57600080fd5b506102a660048036038101906102a19190611881565b610ab3565b6040516102b391906119a2565b60405180910390f35b3480156102c857600080fd5b506102d1610b83565b6040516102de9190611b1a565b60405180910390f35b3480156102f357600080fd5b5061030e60048036038101906103099190611a64565b610bac565b60405161031b91906118c9565b60405180910390f35b34801561033057600080fd5b5061034b60048036038101906103469190611881565b610c3e565b60405161035b9493929190611b35565b60405180910390f35b34801561037057600080fd5b5061038b60048036038101906103869190611881565b610c6e565b60405161039891906119a2565b60405180910390f35b3480156103ad57600080fd5b506103c860048036038101906103c39190611bb3565b610e1a565b005b6103e460048036038101906103df9190611c1e565b610e40565b005b3480156103f257600080fd5b506103fb6113b0565b6040516104089190611c6d565b60405180910390f35b34801561041d57600080fd5b5061043860048036038101906104339190611881565b6113c3565b005b34801561044657600080fd5b50610461600480360381019061045c9190611a64565b611446565b60405161046e91906118c9565b60405180910390f35b34801561048357600080fd5b5061049e60048036038101906104999190611ced565b61145d565b005b60026020528060005260406000206000915054906101000a900460ff1681565b6060600360008373ffffffffffffffffffffffffffffffffffffffff1673ffffffffffffffffffffffffffffffffffffffff16815260200190815260200160002060000180548060200260200160405190810160405280929190818152602001828054801561058457602002820191906000526020600020905b8160009054906101000a900473ffffffffffffffffffffffffffffffffffffffff1673ffffffffffffffffffffffffffffffffffffffff168152602001906001019080831161053a575b50505050509050919050565b600061059b82611595565b6105da576040517f08c379a00000000000000000000000000000000000000000000000000000000081526004016105d190611dcb565b60405180910390fd5b601e820361062c57600160008473ffffffffffffffffffffffffffffffffffffffff1673ffffffffffffffffffffffffffffffffffffffff168152602001908152602001600020600001549050610724565b605a820361067e57600160008473ffffffffffffffffffffffffffffffffffffffff1673ffffffffffffffffffffffffffffffffffffffff168152602001908152602001600020600101549050610724565b60b482036106d057600160008473ffffffffffffffffffffffffffffffffffffffff1673ffffffffffffffffffffffffffffffffffffffff168152602001908152602001600020600201549050610724565b61016d820361072357600160008473ffffffffffffffffffffffffffffffffffffffff1673ffffffffffffffffffffffffffffffffffffffff168152602001908152602001600020600301549050610724565b5b92915050565b6000600160008473ffffffffffffffffffffffffffffffffffffffff1673ffffffffffffffffffffffffffffffffffffffff16815260200190815260200160002060040160008373ffffffffffffffffffffffffffffffffffffffff1673ffffffffffffffffffffffffffffffffffffffff16815260200190815260200160002060010154905092915050565b600260003373ffffffffffffffffffffffffffffffffffffffff1673ffffffffffffffffffffffffffffffffffffffff16815260200190815260200160002060009054906101000a900460ff1615610844576040517f08c379a000000000000000000000000000000000000000000000000000000000815260040161083b90611e37565b60405180910390fd5b83600160003373ffffffffffffffffffffffffffffffffffffffff1673ffffffffffffffffffffffffffffffffffffffff1681526020019081526020016000206000018190555082600160003373ffffffffffffffffffffffffffffffffffffffff1673ffffffffffffffffffffffffffffffffffffffff1681526020019081526020016000206001018190555081600160003373ffffffffffffffffffffffffffffffffffffffff1673ffffffffffffffffffffffffffffffffffffffff1681526020019081526020016000206002018190555080600160003373ffffffffffffffffffffffffffffffffffffffff1673ffffffffffffffffffffffffffffffffffffffff168152602001908152602001600020600301819055506001600260003373ffffffffffffffffffffffffffffffffffffffff1673ffffffffffffffffffffffffffffffffffffffff16815260200190815260200160002060006101000a81548160ff0219169083151502179055503373ffffffffffffffffffffffffffffffffffffffff167fa3d33ef5365062a74221b870a461c00305e5eade434b24afacb8b8dacad34f4085858585604051610a049493929190611b35565b60405180910390a250505050565b6000600160008473ffffffffffffffffffffffffffffffffffffffff1673ffffffffffffffffffffffffffffffffffffffff16815260200190815260200160002060040160008373ffffffffffffffffffffffffffffffffffffffff1673ffffffffffffffffffffffffffffffffffffffff16815260200190815260200160002060000154905092915050565b610aa76115c4565b610ab16000611642565b565b6060600160008373ffffffffffffffffffffffffffffffffffffffff1673ffffffffffffffffffffffffffffffffffffffff168152602001908152602001600020600501805480602002602001604051908101604052809291908181526020018280548015610b7757602002820191906000526020600020905b8160009054906101000a900473ffffffffffffffffffffffffffffffffffffffff1673ffffffffffffffffffffffffffffffffffffffff1681526020019060010190808311610b2d575b50505050509050919050565b60008060009054906101000a900473ffffffffffffffffffffffffffffffffffffffff16905090565b600080610bb8836104c0565b905060005b8151811015610c31578473ffffffffffffffffffffffffffffffffffffffff16828281518110610bf057610bef611e57565b5b602002602001015173ffffffffffffffffffffffffffffffffffffffff1603610c1e57600092505050610c38565b8080610c2990611eb5565b915050610bbd565b5060019150505b92915050565b60016020528060005260406000206000915090508060000154908060010154908060020154908060030154905084565b60606000600160008473ffffffffffffffffffffffffffffffffffffffff1673ffffffffffffffffffffffffffffffffffffffff16815260200190815260200160002090506000610cbe84610ab3565b90506000815167ffffffffffffffff811115610cdd57610cdc611efd565b5b604051908082528060200260200182016040528015610d0b5781602001602082028036833780820191505090505b5090506000805b8351811015610e0a5742856004016000868481518110610d3557610d34611e57565b5b602002602001015173ffffffffffffffffffffffffffffffffffffffff1673ffffffffffffffffffffffffffffffffffffffff1681526020019081526020016000206001015410610df757838181518110610d9357610d92611e57565b5b6020026020010151838381518110610dae57610dad611e57565b5b602002602001019073ffffffffffffffffffffffffffffffffffffffff16908173ffffffffffffffffffffffffffffffffffffffff16815250508180610df390611eb5565b9250505b8080610e0290611eb5565b915050610d12565b5080825281945050505050919050565b610e226115c4565b80600060146101000a81548160ff021916908360ff16021790555050565b6000600160008473ffffffffffffffffffffffffffffffffffffffff1673ffffffffffffffffffffffffffffffffffffffff16815260200190815260200160002090506000816000015411610eca576040517f08c379a0000000000000000000000000000000000000000000000000000000008152600401610ec190611f78565b60405180910390fd5b610ed48383610590565b341015610f16576040517f08c379a0000000000000000000000000000000000000000000000000000000008152600401610f0d90611fe4565b60405180910390fd5b610f1f82611595565b610f5e576040517f08c379a0000000000000000000000000000000000000000000000000000000008152600401610f5590611dcb565b60405180910390fd5b600042905080610f6e853361072a565b1115610f8157610f7e843361072a565b90505b60006201518084610f929190612004565b82610f9d9190612046565b90506000604051806040016040528084815260200183815250905080600160008873ffffffffffffffffffffffffffffffffffffffff1673ffffffffffffffffffffffffffffffffffffffff16815260200190815260200160002060040160003373ffffffffffffffffffffffffffffffffffffffff1673ffffffffffffffffffffffffffffffffffffffff16815260200190815260200160002060008201518160000155602082015181600101559050506110598633610bac565b156111675783600501339080600181540180825580915050600190039060005260206000200160009091909190916101000a81548173ffffffffffffffffffffffffffffffffffffffff021916908373ffffffffffffffffffffffffffffffffffffffff160217905550600360003373ffffffffffffffffffffffffffffffffffffffff1673ffffffffffffffffffffffffffffffffffffffff168152602001908152602001600020600001869080600181540180825580915050600190039060005260206000200160009091909190916101000a81548173ffffffffffffffffffffffffffffffffffffffff021916908373ffffffffffffffffffffffffffffffffffffffff1602179055505b60006064600060149054906101000a900460ff1660ff16346111899190612004565b61119391906120a9565b9050600081346111a391906120da565b905060006111af610b83565b73ffffffffffffffffffffffffffffffffffffffff16836040516111d29061213f565b60006040518083038185875af1925050503d806000811461120f576040519150601f19603f3d011682016040523d82523d6000602084013e611214565b606091505b5050905080611258576040517f08c379a000000000000000000000000000000000000000000000000000000000815260040161124f906121a0565b60405180910390fd5b60008973ffffffffffffffffffffffffffffffffffffffff168360405161127e9061213f565b60006040518083038185875af1925050503d80600081146112bb576040519150601f19603f3d011682016040523d82523d6000602084013e6112c0565b606091505b5050905080611304576040517f08c379a00000000000000000000000000000000000000000000000000000000081526004016112fb9061220c565b60405180910390fd5b3373ffffffffffffffffffffffffffffffffffffffff168a73ffffffffffffffffffffffffffffffffffffffff167f86ae96f9ca0528508a2b9e217ca66779e0d2622ead35949bc8c17486a66fc6c5898960405161136392919061222c565b60405180910390a37f5c06519393bcbf65e08dd201fe3934937aab1637bfe3e3131bc34cda53e6b35c8a3360405161139c9291906122b4565b60405180910390a150505050505050505050565b600060149054906101000a900460ff1681565b6113cb6115c4565b600073ffffffffffffffffffffffffffffffffffffffff168173ffffffffffffffffffffffffffffffffffffffff160361143a576040517f08c379a00000000000000000000000000000000000000000000000000000000081526004016114319061234f565b60405180910390fd5b61144381611642565b50565b600042611453848461072a565b1015905092915050565b8181905084849050146114a5576040517f08c379a000000000000000000000000000000000000000000000000000000000815260040161149c906123bb565b60405180910390fd5b600260003373ffffffffffffffffffffffffffffffffffffffff1673ffffffffffffffffffffffffffffffffffffffff16815260200190815260200160002060009054906101000a900460ff16611531576040517f08c379a000000000000000000000000000000000000000000000000000000000815260040161152890612427565b60405180910390fd5b60005b8484905081101561158e5761157b85858381811061155557611554611e57565b5b9050602002013584848481811061156f5761156e611e57565b5b90506020020135611706565b808061158690611eb5565b915050611534565b5050505050565b6000601e8214806115a65750605a82145b806115b1575060b482145b806115bd575061016d82145b9050919050565b6115cc611811565b73ffffffffffffffffffffffffffffffffffffffff166115ea610b83565b73ffffffffffffffffffffffffffffffffffffffff1614611640576040517f08c379a000000000000000000000000000000000000000000000000000000000815260040161163790612493565b60405180910390fd5b565b60008060009054906101000a900473ffffffffffffffffffffffffffffffffffffffff169050816000806101000a81548173ffffffffffffffffffffffffffffffffffffffff021916908373ffffffffffffffffffffffffffffffffffffffff1602179055508173ffffffffffffffffffffffffffffffffffffffff168173ffffffffffffffffffffffffffffffffffffffff167f8be0079c531659141344cd1fd0a4f28419497f9722a3daafe3b4186f6b6457e060405160405180910390a35050565b601e8214806117155750605a82145b80611720575060b482145b8061172c575061016d82145b61176b576040517f08c379a0000000000000000000000000000000000000000000000000000000008152600401611762906124ff565b60405180910390fd5b6000600160003373ffffffffffffffffffffffffffffffffffffffff1673ffffffffffffffffffffffffffffffffffffffff1681526020019081526020016000209050601e83036117c5578181600001819055505061180d565b605a83036117dc578181600101819055505061180d565b60b483036117f3578181600201819055505061180d565b61016d830361180b578181600301819055505061180d565b505b5050565b600033905090565b600080fd5b600080fd5b600073ffffffffffffffffffffffffffffffffffffffff82169050919050565b600061184e82611823565b9050919050565b61185e81611843565b811461186957600080fd5b50565b60008135905061187b81611855565b92915050565b60006020828403121561189757611896611819565b5b60006118a58482850161186c565b91505092915050565b60008115159050919050565b6118c3816118ae565b82525050565b60006020820190506118de60008301846118ba565b92915050565b600081519050919050565b600082825260208201905092915050565b6000819050602082019050919050565b61191981611843565b82525050565b600061192b8383611910565b60208301905092915050565b6000602082019050919050565b600061194f826118e4565b61195981856118ef565b935061196483611900565b8060005b8381101561199557815161197c888261191f565b975061198783611937565b925050600181019050611968565b5085935050505092915050565b600060208201905081810360008301526119bc8184611944565b905092915050565b6000819050919050565b6119d7816119c4565b81146119e257600080fd5b50565b6000813590506119f4816119ce565b92915050565b60008060408385031215611a1157611a10611819565b5b6000611a1f8582860161186c565b9250506020611a30858286016119e5565b9150509250929050565b611a43816119c4565b82525050565b6000602082019050611a5e6000830184611a3a565b92915050565b60008060408385031215611a7b57611a7a611819565b5b6000611a898582860161186c565b9250506020611a9a8582860161186c565b9150509250929050565b60008060008060808587031215611abe57611abd611819565b5b6000611acc878288016119e5565b9450506020611add878288016119e5565b9350506040611aee878288016119e5565b9250506060611aff878288016119e5565b91505092959194509250565b611b1481611843565b82525050565b6000602082019050611b2f6000830184611b0b565b92915050565b6000608082019050611b4a6000830187611a3a565b611b576020830186611a3a565b611b646040830185611a3a565b611b716060830184611a3a565b95945050505050565b600060ff82169050919050565b611b9081611b7a565b8114611b9b57600080fd5b50565b600081359050611bad81611b87565b92915050565b600060208284031215611bc957611bc8611819565b5b6000611bd784828501611b9e565b91505092915050565b6000611beb82611823565b9050919050565b611bfb81611be0565b8114611c0657600080fd5b50565b600081359050611c1881611bf2565b92915050565b60008060408385031215611c3557611c34611819565b5b6000611c4385828601611c09565b9250506020611c54858286016119e5565b9150509250929050565b611c6781611b7a565b82525050565b6000602082019050611c826000830184611c5e565b92915050565b600080fd5b600080fd5b600080fd5b60008083601f840112611cad57611cac611c88565b5b8235905067ffffffffffffffff811115611cca57611cc9611c8d565b5b602083019150836020820283011115611ce657611ce5611c92565b5b9250929050565b60008060008060408587031215611d0757611d06611819565b5b600085013567ffffffffffffffff811115611d2557611d2461181e565b5b611d3187828801611c97565b9450945050602085013567ffffffffffffffff811115611d5457611d5361181e565b5b611d6087828801611c97565b925092505092959194509250565b600082825260208201905092915050565b7f496e76616c696420737562736372697074696f6e20706572696f640000000000600082015250565b6000611db5601b83611d6e565b9150611dc082611d7f565b602082019050919050565b60006020820190508181036000830152611de481611da8565b9050919050565b7f43726561746f722068617320616e206578697374696e67207061676500000000600082015250565b6000611e21601c83611d6e565b9150611e2c82611deb565b602082019050919050565b60006020820190508181036000830152611e5081611e14565b9050919050565b7f4e487b7100000000000000000000000000000000000000000000000000000000600052603260045260246000fd5b7f4e487b7100000000000000000000000000000000000000000000000000000000600052601160045260246000fd5b6000611ec0826119c4565b91507fffffffffffffffffffffffffffffffffffffffffffffffffffffffffffffffff8203611ef257611ef1611e86565b5b600182019050919050565b7f4e487b7100000000000000000000000000000000000000000000000000000000600052604160045260246000fd5b7f43726561746f72206e6f7420666f756e64000000000000000000000000000000600082015250565b6000611f62601183611d6e565b9150611f6d82611f2c565b602082019050919050565b60006020820190508181036000830152611f9181611f55565b9050919050565b7f496e73756666696369656e74207061796d656e74000000000000000000000000600082015250565b6000611fce601483611d6e565b9150611fd982611f98565b602082019050919050565b60006020820190508181036000830152611ffd81611fc1565b9050919050565b600061200f826119c4565b915061201a836119c4565b9250828202612028816119c4565b9150828204841483151761203f5761203e611e86565b5b5092915050565b6000612051826119c4565b915061205c836119c4565b925082820190508082111561207457612073611e86565b5b92915050565b7f4e487b7100000000000000000000000000000000000000000000000000000000600052601260045260246000fd5b60006120b4826119c4565b91506120bf836119c4565b9250826120cf576120ce61207a565b5b828204905092915050565b60006120e5826119c4565b91506120f0836119c4565b925082820390508181111561210857612107611e86565b5b92915050565b600081905092915050565b50565b600061212960008361210e565b915061213482612119565b600082019050919050565b600061214a8261211c565b9150819050919050565b7f546178207061796d656e74207472616e73666572206661696c65640000000000600082015250565b600061218a601b83611d6e565b915061219582612154565b602082019050919050565b600060208201905081810360008301526121b98161217d565b9050919050565b7f43726561746f72207061796d656e74207472616e73666572206661696c656400600082015250565b60006121f6601f83611d6e565b9150612201826121c0565b602082019050919050565b60006020820190508181036000830152612225816121e9565b9050919050565b60006040820190506122416000830185611a3a565b61224e6020830184611a3a565b9392505050565b6000819050919050565b600061227a61227561227084611823565b612255565b611823565b9050919050565b600061228c8261225f565b9050919050565b600061229e82612281565b9050919050565b6122ae81612293565b82525050565b60006040820190506122c960008301856122a5565b6122d66020830184611b0b565b9392505050565b7f4f776e61626c653a206e6577206f776e657220697320746865207a65726f206160008201527f6464726573730000000000000000000000000000000000000000000000000000602082015250565b6000612339602683611d6e565b9150612344826122dd565b604082019050919050565b600060208201905081810360008301526123688161232c565b9050919050565b7f417272617973206c656e677468206d69736d6174636800000000000000000000600082015250565b60006123a5601683611d6e565b91506123b08261236f565b602082019050919050565b600060208201905081810360008301526123d481612398565b9050919050565b7f596f752068617665206e6f742063726561746564206120706167650000000000600082015250565b6000612411601b83611d6e565b915061241c826123db565b602082019050919050565b6000602082019050818103600083015261244081612404565b9050919050565b7f4f776e61626c653a2063616c6c6572206973206e6f7420746865206f776e6572600082015250565b600061247d602083611d6e565b915061248882612447565b602082019050919050565b600060208201905081810360008301526124ac81612470565b9050919050565b7f496e76616c696420696e74657276616c00000000000000000000000000000000600082015250565b60006124e9601083611d6e565b91506124f4826124b3565b602082019050919050565b60006020820190508181036000830152612518816124dc565b905091905056fea26469706673582212201204fb88862866aeec8d6c686e8f073b89bbdf6160608e88b05404d491927d4764736f6c63430008120033",
  "linkReferences": {},
  "deployedLinkReferences": {}
}